:100000000C94B2050C94F9050C94F9050C94F905BF
:100010000C94F9050C94F9050C94F9050C94F90568
:100020000C94F9050C94F9050C94E2230C94B52476
:100030000C94541B0C94F9050C94F9050C94F905D7
:100040000C94F9050C94F9050C94F9050C94F90538
:100050000C94F9050C94BC1B0C94F9050C94F9054F
:100060000C94F9050C94F9050C94F9050C94F90518
:100070000C94F9050C94F9050C94F9050C94F90508
:100080000C94F9050C94F9050C94F9050C94F905F8
:100090000C94F9050C94F9050C94F9050C94F905E8
:1000A0000C94F9050C94F9050C94F9052B001A0031
:1000B00015001C000C0013002C002900160009007C
:1000C0000B000E0033002C00E1001B001900110092
:1000D000360038005200E000E2001700180012005D
:1000E00000000000140008000A000D000F002A00A4
:1000F0002C000400070005001000370034002C001D
:100100001D0006002C002C00E200E1000000E300CE
:100110002C000000000000000000000001000100B1
:1001200001000100010001000100010001000100C7
:1001300001000100010001000100010001000100B7
:1001400001000100010001000100010001000100A7
:100150000100010001000100010001000100010097
:100160000100010001000100010001000100010087
:100170000100010001000100010001000000010078
:10018000010000000000000001000100010001006A
:100190000100010001000100010001000100010057
:1001A0000100010001000100010001000100010047
:1001B0000100010001000100010001000100010037
:1001C0000100010001000100010001000100010027
:1001D0000100010001000100010001000100010017
:1001E0000100010001000100010001000000010008
:1001F00001000000000000000100010001000100FA
:1002000001000100010001000100010001000100E6
:1002100001000100010001000100010001000100D6
:1002200001000100010001000100010001000100C6
:1002300001000100010001000100010001000100B6
:1002400001000100010001000100010001000100A6
:100250000100010001000100010001000000010097
:100260000100000000000000010001000100010089
:100270000100010001000100010001000100010076
:100280000100010001000100010001000100010066
:100290000100010001000100010001000100010056
:1002A0000100010001000100010001000100010046
:1002B0000100010001000100010001000100010036
:1002C0000100010001000100010001000000010027
:1002D0000100000000000000010001000100010019
:1002E0000100010001000100010001000100010006
:1002F00001000100010001000100010001000100F6
:1003000001000100010001000100010001000100E5
:1003100001000100010001000100010001000100D5
:1003200001000100010001000100010001000100C5
:1003300001000100010001000100010000000100B6
:1003400001000000000000000100010001000100A8
:100350000100010001000100010001000100010095
:100360000100010001000100010001000100010085
:100370000100010001000100010001000100010075
:100380000100010001000100010001000100010065
:100390000100010001000100010001000100010055
:1003A0000100010001000100010001000000010046
:1003B0000100000000000000010001000100010038
:1003C0000100010001000100010001000100010025
:1003D0000100010001000100010001000100010015
:1003E0000100010001000100010001000100010005
:1003F00001000100010001000100010001000100F5
:1004000001000100010001000100010001000100E4
:1004100001000100010001000100010000000100D5
:1004200001000000000000000100010001000100C7
:1004300001000100010001000100010001000100B4
:1004400001000100010001000100010001000100A4
:100450000100010001000100010001000100010094
:100460000100010001000100010001000100010084
:100470000100010001000100010001000100010074
:100480000100010001000100010001000000010065
:100490000100000000000000010001000100010057
:1004A0000100010001000100010001000100010044
:1004B0000100010001000100010001000100010034
:1004C0000100010001000100010001000100010024
:1004D0000100010001000100010001000100010014
:1004E0000100010001000100010001000100010004
:1004F00001000100010001000100010000000100F5
:1005000001000000000000000100010001000100E6
:1005100001000100010001000100010001000100D3
:1005200001000100010001000100010001000100C3
:1005300001000100010001000100010001000100B3
:1005400001000100010001000100010001000100A3
:100550000100010001000100010001000100010093
:100560000100010001000100010001000000010084
:100570000100000000000000010001000100010076
:100580000100010001000100010001000100010063
:100590000100010001000100010001000100010053
:1005A0000100010001000100010001000100010043
:1005B0000100010001000100010001000100010033
:1005C0000100010001000100010001000100010023
:1005D0000100010001000100010001000000010014
:1005E0000100000000000000010001000100010006
:1005F00001000100010001000100010001000100F3
:1006000001000100010001000100010001000100E2
:1006100001000100010001000100010001000100D2
:1006200001000100010001000100010001000100C2
:1006300001000100010001000100010001000100B2
:1006400001000100010001000100010000000100A3
:100650000100000000000000010001000100010095
:100660000100010001000100010001000100010082
:100670000100010001000100010001000100010072
:100680000100010001000100010001000100010062
:100690000100010001000100010001000100010052
:1006A0000100010001000100010001000100010042
:1006B0000100010001000100010001000000010033
:1006C0000100000000000000010001000100010025
:1006D0000100010001000100010001000100010012
:1006E0000100010001000100010001000100010002
:1006F00001000100010001000100010001000100F2
:1007000001000100010001000100010001000100E1
:1007100001000100010001000100010001000100D1
:1007200001000100010001000100010000000100C2
:1007300001000000000000000100010001000100B4
:1007400001000100010001000100010001000100A1
:100750000100010001000100010001000100010091
:100760000100010001000100010001000100010081
:100770000100010001000100010001000100010071
:100780000100010001000100010001000100010061
:100790000100010001000100010001000000010052
:1007A0000100000000000000010001006432146438
:1007B0003214783C1E1E140A0500000000010101DD
:1007C0000202030405050607090A0B0C0E0F11129D
:1007D000141517191B1D1F212325282A2C2F3134EE
:1007E00036393B3E414346494C4F5255585A5D615C
:1007F00064676A6D707376797C7F8386898C8F924B
:1008000095989B9EA2A5A7AAADB0B3B6B9BCBEC130
:10081000C4C6C9CBCED0D3D5D7DADCDEE0E2E4E67D
:10082000E8EAEBEDEEF0F1F3F4F5F6F8F9FAFAFB9D
:10083000FCFDFDFEFEFEFFFFFFFFFFFFFFFEFEFED5
:10084000FDFDFCFBFAFAF9F8F6F5F4F3F1F0EEED44
:10085000EBEAE8E6E4E2E0DEDCDAD7D5D3D0CECBD3
:10086000C9C6C4C1BEBCB9B6B3B0ADAAA7A5A29E45
:100870009B9895928F8C898683807C797673706D36
:100880006A6764615D5A5855524F4C494643413E30
:100890003B393634312F2C2A282523211F1D1B19C3
:1008A00017151412110F0E0C0B0A09070605050483
:1008B000030202010101000000000000000001012C
:1008C000010101010101010202020202020202020F
:1008D00003030303030303030404040404040505DE
:1008E000050505060606060607070707080808089F
:1008F0000909090A0A0A0A0B0B0B0C0C0C0D0D0D49
:100900000E0E0F0F0F1010111111121213131414D9
:10091000151516161717181819191A1A1B1C1C1D4D
:100920001D1E1F1F202021222223242525262727A4
:1009300028292A2B2B2C2D2E2F2F303132333435D2
:1009400036363738393A3B3C3D3E3F4041424344DE
:10095000464748494A4B4C4D4F50515253555657B4
:10096000585A5B5C5E5F606263646667696A6C6D5F
:100970006E707173747678797B7C7E8081838486D7
:10098000888A8B8D8F91929496989A9B9D9FA1A314
:10099000A5A7A9ABADAFB1B3B5B7B9BBBDBFC1C416
:1009A000C6C8CACCCFD1D3D6D8DADCDFE1E4E6E8DA
:1009B000EBEDF0F2F5F7FAFCFF12036B006500793E
:1009C0000062006F00610072006400000016037195
:1009D000006D006B006200750069006C00640065CA
:1009E00000720000000403090409026D0004010004
:1009F000A0FA09040000010301010009211101000E
:100A0000012240000705810308000A0904010001D2
:100A100003010200092111010001224D0007058296
:100A20000308000A09040200010300000009211163
:100A30000100012236000705830308000A090403A8
:100A40000001030000000921110100012239000703
:100A50000584032000011201100100000008EDFED2
:100A6000606001000102000105010906A1010507FE
:100A700019E029E71500250195087501810205088F
:100A800019012905950575019102950175039101DB
:100A90000507190029F71500250195F87501810250
:100AA000C005010980A10185021601002603001A74
:100AB00081002A8300751095018100C0050C090191
:100AC000A1018503160100269C021A01002A9C023E
:100AD000751095018100C005010902A1010901A15C
:100AE00000050919012905150025019505750181E4
:100AF0000295017503810105010930093115812530
:100B00007F95027508810609381581257F95017545
:100B1000088106050C0A38021581257F95017508A4
:100B20008106C0C005010906A101050719E029E7F2
:100B3000150025019508750181029501750881014F
:100B4000050819012905950575019102950175039F
:100B500091010507190029FF150026FF009506756C
:100B6000088100C011241FBECFEFDAE0DEBFCDBF89
:100B700004B603FE27C08091540290915502A091C3
:100B80005602B09157028730904BA740B04BD1F43A
:100B9000109254021092550210925602109257026F
:100BA00014BE84B7877F84BF0FB6F894A895809150
:100BB0006000886180936000109260000FBEE0E0EA
:100BC000F8E3099511E0A0E0B1E0E0E2F0E502C051
:100BD00005900D92A833B107D9F722E0A8E3B1E060
:100BE00001C01D92A435B207E1F70E942F210C9499
:100BF0000E280C94000090E080E008950895089578
:100C000081E00895089581E008950C9400060E9403
:100C1000C7132FEF84E39CE0215080409040E1F720
:100C200000C000000C94E11BFF920F931F93CF9321
:100C3000DF938C01FC01C081D181809183018111FE
:100C400048C08281882309F43FC0CE010E942E193A
:100C5000F82E682FCE010E94D418BE018F2D0E945D
:100C6000B007EC01B8010E940506882309F478C09A
:100C7000B801CE010E94C009882309F471C0C633AF
:100C8000F0E7DF0709F484C0C0F5C53190E7D90764
:100C900028F5C230E0E7DE0708F099C0C115F0E79B
:100CA000DF0709F458C0C130D04709F460C081E0C3
:100CB00080933A0180933B01C801DF91CF911F914E
:100CC0000F91FF900C940306CE010E940319F82E99
:100CD000C4CFCE010E942E19BE01C1CFC43390E70C
:100CE000D90709F44EC0C533D04709F7F80182810E
:100CF0008823B1F10E94820D33C0CA33F0E7DF07C9
:100D000009F457C070F4F8018281C833F0E7DF07B7
:100D100009F44AC008F443C0882311F10E94C60CAC
:100D20001FC0CC33E0E7DE0709F4D5C008F448C0A3
:100D3000CD33D04709F0BBCFF8018281882309F475
:100D4000F1C010923B010E94861B90933901809361
:100D5000380180E2CDC0F801828181110E9407062E
:100D600080E0DF91CF911F910F91FF900895F801DE
:100D700082818823A9F380910C02816080930C0208
:100D8000EFCFF8018281882359F30E948C0DE8CFC0
:100D9000F8018281882321F30E94770CE1CF882318
:100DA000F9F20E948F0CDCCF8823D1F20E94AE0CA6
:100DB000D7CFF8018281882399F20E94DE0CD0CF30
:100DC000F8018281882361F20E94F60CC9CFF801F4
:100DD0008281882309F470CF0E94E61A811102C033
:100DE0000E94C51A0E94031B90E0909346028093D4
:100DF0004502FE01E350F047809145028160E231F7
:100E0000F105C8F4EA5FF84F0C94BB2718072407D4
:100E100028072C073007340738073C0740074407EA
:100E200048074C075007540758075C0760076407DA
:100E300080914502826080934502809145020E9424
:100E4000071B0E94C7138CCF809145028460F3CFAB
:100E5000809145028860EFCF809145028061EBCFA1
:100E6000809145028062E7CF809145028064E3CFA4
:100E7000809145028068DFCF809145028460EACF8F
:100E8000809145028E7FD7CF809145028D7FD3CF51
:100E9000809145028B7FCFCF80914502877FCBCF5A
:100EA000809145028F7EC7CF809145028F7DC3CF51
:100EB000809145028F7BBFCF809145028F77BBCF5A
:100EC000809145028B7FEACF90914502892F97FB55
:100ED00087F98058B0CFF8018281882361F01092A1
:100EE0003A010E94861B909339018093380182E079
:100EF0000E94511135CF80913A0181110FC080912C
:100F00003801909139010E94921B883C910530F480
:100F100086E20E94261086E20E94021182E00E9470
:100F200058111ECF80913B0181110FC08091380173
:100F3000909139010E94921B883C910530F487E220
:100F40000E94261087E20E94021180E2E8CF0C94F2
:100F50000F0A0C94110A0C9402060C94AB07089526
:100F6000972F70E027E0929F600D711D1124FB0107
:100F700098E3899FE00DF11D1124EE0FFF1FE4554A
:100F8000FF4F859194910895FC01EE0FFF1FE455EA
:100F9000F84F8591949108950E94B0070E943F09EF
:100FA000811520E4920708F08DC0811540E3940775
:100FB00008F0E8C0803E910508F071C0803C9105C2
:100FC00008F0CCC0883A910580F4853A910508F084
:100FD000CAC08130910509F46EC020F084309105BB
:100FE00008F069C090E080E008958D3B9105D0F74E
:100FF000883A910509F404C1893A910509F403C1BD
:101000008A3A910509F402C18B3A910509F401C1AC
:101010008C3A910509F400C18B3B910509F4FFC09E
:101020008C3B910509F4FEC08D3A910509F4FDC091
:10103000803B910509F4FCC08E3A910509F4FBC090
:101040008F3A910509F4FAC0813B910509F4F9C082
:10105000823B910509F4F8C0833B910509F4F7C080
:10106000843B910509F4F6C0853B910509F4F5C070
:10107000863B910509F4F4C0873B910509F4F3C060
:10108000883B910509F4F2C0893B910509F4F1C050
:101090008A3B910509F4F0C080E094E408958F3F05
:1010A000910509F048F4803F910508F067C0883E3B
:1010B000910508F097CF0895811520E2920708F076
:1010C0005FC00895811543E5940760F5811522E519
:1010D000920708F062C0811541E5940708F058C0F6
:1010E000811520E5920708F450C09C0154E0369524
:1010F00027955A95E1F7922F9370482F437021E07E
:1011000030E002C0220F331F4A95E2F73C68392BCA
:1011100086958695837040E2849FC0011124822BBE
:10112000932B0895811545E5940750F4811524E526
:10113000920708F446C0982F8827846F906A089514
:10114000811546E5940708F450C09C0130569F7005
:101150002115304108F046CF90620895805C9109D6
:101160000E94C4070895853A910509F443C0863A60
:10117000910509F042C082E890E4089590650895D1
:101180009F70EECF9927906C08959F70906A089594
:10119000982F8827816F906A0895AC014370552776
:1011A00021E030E002C0220F331F4A95E2F7869516
:1011B000869540E2849FC0011124822B932B9C686A
:1011C0000895AC014370552721E030E002C0220FA2
:1011D000331F4A95E2F78695869540E2849FC001C9
:1011E0001124822B932B9A680895982F882788279B
:1011F0009F71B2CF81E890E4089583E890E4089568
:1012000082EE94E4089589EE94E408958AEE94E4DD
:10121000089585EB94E4089586EB94E4089583EBB8
:1012200094E4089584EB94E4089587EB94E408959E
:101230008CEC94E408958DEC94E4089583E895E4AF
:1012400008958AE895E4089582E995E4089584E98B
:1012500095E4089581E296E4089583E296E4089582
:1012600084E296E4089585E296E4089586E296E4A1
:10127000089587E296E408958AE296E41CCF8238C6
:10128000910549F1B0F48133910509F45CC048F44B
:101290008932910509F452C08A32910509F458C087
:1012A00008958533910509F444C08933910599F077
:1012B0000895833E910531F138F4803E910591F017
:1012C000823E9105B1F00895863E910511F1873E69
:1012D000910541F10895209145022370C9F080EEF7
:1012E00090E008952091450220FF12C089E390E02C
:1012F00008952091450222FF0BC024FF2EC090E0EC
:1013000080E008952091450222FD2AC024FDF7CFF8
:1013100008952091450223FFFBCF24FDF0CF87EEF7
:1013200090E008952091450223FFF0CF86EE90E0F3
:1013300008952091450225FD16C00895209145028B
:1013400025FD14C008952091450226FD12C0089580
:101350002091450226FD10C0089583EE90E0089587
:1013600082EE90E0089589E290E0089585E390E0B0
:1013700008958AE290E0089581E390E0C9CF08954E
:101380000F931F93CF938C01FB018281811106C0C3
:10139000C1E08C2FCF911F910F910895C091490109
:1013A000C11125C00531104799F70E94BF0981E09E
:1013B000809349010E94861B9093480180934701C6
:1013C00010923C0110923E0110923D01109240019A
:1013D00010923F011092420110924101109244017B
:1013E000109243011092460110924501D2CF809194
:1013F0004701909148010E94921B883C910540F65C
:1014000080913C01E82FF0E0EE0FFF1FE35CFE4F00
:10141000118300838F5F80933C01C0E0BACF0C94AE
:10142000FE050C94FF0585B7806885BF85B7806889
:1014300085BFA4E1B1E061E070E08D91E82FE29515
:10144000EF70F0E041A18F709B0101C0220F8A95DF
:10145000EAF7922F9095942391A382A1822B82A3E5
:1014600081E0AB31B80749F7ABE1B1E061E070E092
:101470008D91E82FE295EF70F0E041A18F709B0114
:1014800001C0220F8A95EAF7922F9095942391A399
:1014900082A1822B82A381E0A332B80749F7E2E55B
:1014A000F1E0AAE4B1E08AE591E011921D928E1775
:1014B0009F07D9F70C94A7072F923F925F926F92E4
:1014C0007F928F929F92AF92BF92CF92DF92EF92D4
:1014D000FF920F931F93CF93DF9394E1E92E91E056
:1014E000F92E312C212CCC24C394D12CBB24B394C1
:1014F000D7018D917D01E82FE295EF70F0E091A189
:101500008F70A60101C0440F8A95EAF7892F842BBA
:1015100081A392A1A42EA0949A2192A3B0EABA9595
:10152000F1F7C601022C01C0880F0A94EAF7682E71
:10153000782E70940AE411E06BE171E0D80130E09C
:101540005C90EB012991BE01822E82948FE088226B
:10155000912CE40188A190E02F7002C095958795A9
:101560002A95E2F780FD51C0862D85298C938C91B8
:10157000581231E01196D1E063327D0709F781A15D
:101580008A2181A382A1482B42A3332341F0B09248
:101590005A010E94861B90935C0180935B01EFEFE0
:1015A0002E1A3E0AF7E02F16310409F0A1CF8091E0
:1015B0005A018823A9F080915B0190915C010E94FF
:1015C000921B069768F0E2E5F1E082E591E0D80130
:1015D0002D918D0121938A179B07C9F710925A010B
:1015E0000E94A90781E0DF91CF911F910F91FF9099
:1015F000EF90DF90CF90BF90AF909F908F907F90B3
:101600006F905F903F902F900895872D8521AECFEA
:10161000E82FF0E0EE5AFE4F8081089508953BB127
:10162000242F209523233BB1432B3FB7F894FC0193
:10163000680F791FE617F70711F43FBF08958191EE
:1016400098E04BB9000000C087FF2BB9880F00005D
:1016500000C000C000C02BB900C09A9591F7EACF36
:101660002AB1242B2AB99B01220F331F620F731F4B
:101670000E940F0B87EC90E00197F1F700C000008B
:10168000089542E00C94300BCF92DF92EF92FF92DC
:101690000F931F93CF93DF93E901662309F466C08C
:1016A000E42EF12CEFEFF0E0E61BF109EE9D800156
:1016B000EF9D100DFE9D100D1124212FE12FFF270E
:1016C000EE1AFF0A5CE3C52ED12CB6010E949327C7
:1016D000FB01BC01E69EC001E79E900DF69E900DB9
:1016E0001124B6010E949327E230F10589F168F4D4
:1016F000812F262F210F309781F0242F461B319701
:1017000061F080E020E040E008C0E430F10551F1F4
:1017100028F1842F861B3597A1F7E42FF0E0E754DA
:10172000F74F4491E22FF0E0E754F74F9491E82F00
:10173000F0E0E754F74FE49149839883EA83DF911F
:10174000CF911F910F91FF90EF90DF90CF90089570
:10175000862F810FE42F412F2E2FDFCFE42FE61BA2
:10176000842FF9CF842F462F410FD7CF842F242FDA
:10177000D4CF88E090E00C94CE27AB01BC0188E088
:1017800090E00C94EC27E9E3F2E083E08083109290
:101790003A028FEF828383836091390270913A021B
:1017A00080913B0290913C020C94BD0B70E060E094
:1017B00081E492E00C94410BEF92FF920F931F9300
:1017C000CF93DF9300D01F92CDB7DEB7182FE92E4D
:1017D000F62E042F8091390290913A02A0913B029B
:1017E000B0913C0280933D0290933E02A0933F0251
:1017F000B09340028091390280FF1CC09E012F5F90
:101800003F4F812F9E2D0E94440B80913D0210FB83
:1018100087F980933D02169580913E028078812B56
:10182000E0FA87F980933E02F0923F020093400273
:101830000E94D60B0F900F900F90DF91CF911F91C8
:101840000F91FF90EF9008950F931F93CF93DF9325
:10185000EC01062F142F9091390290FF43C0892F7D
:101860008E77823021F5CE010E94DC0B8091390207
:10187000C0FB87F980933902C69580913A0280783F
:10188000C82BD0FBC7F9C0933A0200933B021093D8
:101890003C026091390270913A0280913B02909132
:1018A0003C02DF91CF911F910F910C94BD0B892FBA
:1018B00086958F732EE3280F2F73243018F4109120
:1018C0003C02D4CF865C8F73893080F6991F9927AC
:1018D000991FD0913A02CD2FCC0FC92BD7FBDD2712
:1018E000D0F9C4CFDF91CF911F910F910895E9E313
:1018F000F2E02081221F2227221F30913A02432F3B
:10190000440F842F822B37FB992790F9089668E6BD
:1019100071E00E94A727438162810C94240C2091DE
:101920003902221F2227221F30913A02432F440FEF
:10193000842F822B37FB992790F98830910540F44A
:10194000805A9E4F40913C0260913B020C94240CC3
:10195000089768E671E00E94A727F4CF60913B02E8
:10196000683F90F4685F80913902881F8827881F3C
:1019700090913A02292F220F97FB992790F94091D5
:101980003C02822B0C94240C6FEFEDCF60913B0254
:10199000683090F0685080913902881F8827881F2E
:1019A00090913A02292F220F97FB992790F94091A5
:1019B0003C02822B0C94240C60E0EDCF40913C0261
:1019C000483F90F4485F80913902881F8827881F1C
:1019D00090913A02292F220F97FB992790F9609155
:1019E0003B02822B0C94240C4FEFEDCF40913C0234
:1019F000483090F0485080913902881F8827881F0E
:101A000090913A02292F220F97FB992790F9609124
:101A10003B02822B0C94240C40E0EDCF90913902D4
:101A200090FF3BC09178811126C09260909339025B
:101A30006091390270913A0280913B0290913C0290
:101A40000E94BD0B80913902982F9E779230D9F475
:101A500010927201881F8827881F90913A02292FBF
:101A6000220F97FB992790F940913C0260913B022D
:101A7000822B0C94240C893110F09063D7CF8F7394
:101A8000880F982BD3CF982F9695925C9F739631A1
:101A900008F791E090937201DDCF089580910C02D8
:101AA000816080930C0281E0809373010E94E61AAA
:101AB000811104C00E94C51A0E94C30B0E94B90B79
:101AC0006093390270933A0280933B0290933C02F8
:101AD0006E7761F40E94C30B0E94B90B60933902C8
:101AE00070933A0280933B0290933C0281E0809392
:101AF00072018091390280FF04C086958F730C9427
:101B00000E0D08958091390286958F738F5F89310C
:101B100008F081E00C940E0D90913902892F8E7F90
:101B200090FF8160809339026091390270913A028E
:101B300080913B0290913C020E94BD0B8091390242
:101B400080FF04C086958F730C940E0D1092720165
:101B50002FEF80E792E0215080409040E1F700C0F5
:101B600000000C94D60BCF93C82F809170019091F8
:101B700071010E94921BEC2FF0E0EB54F84FE491BE
:101B8000E817190609F010F50E94861B9093710161
:101B900080937001E0916F01F0E0E754F84F4491B9
:101BA00080913902881F8827881F90913A02292F37
:101BB000220F97FB992790F960913B02822B0E949C
:101BC000DC0B80916F018F5F80936F01CF9108953F
:101BD000CF93C82F80916D0190916E010E94921B4E
:101BE000EC2FF0E0EE54F84FE491E817190609F0F5
:101BF000E8F40E94861B90936E0180936D014091E2
:101C00003C0260913B0280916B0190916C010E94BB
:101C1000DC0B80916B0190916C01019668E671E09C
:101C20000E94932790936C0180936B01CF9108954C
:101C3000CF93C82F8091690190916A010E94921BF5
:101C4000EC2FE695F0E0EE54F84FE491E817190612
:101C500009F0B8F40E94861B90936A018093690191
:101C60000E94D60B8091670190916801C0FF0BC064
:101C7000019668E671E00E94932790936801809333
:101C80006701CF9108950197F8CFCF93DF93C82FC5
:101C9000DFEF80FFD1E080916501909166010E94A5
:101CA000921BC695EC2FF0E0E155F84FE491E81750
:101CB000190609F088F40E94861B909366018093B0
:101CC00065010E94D60BD13061F4809164018111CD
:101CD00006C08FEF80936401DF91CF91089581500A
:101CE000F9CF0E94C127CF93C82F809162019091B4
:101CF00063010E94921BEC2FF0E0E455F84FE49151
:101D0000E817190609F0B0F40E94861B909363014E
:101D1000809362010E94D60B909100018091610135
:101D2000913071F48A3F44F489EF809361018FEF21
:101D300080930001CF910895815080936101FACF83
:101D400087302CF086E08093610181E0F1CF8F5FD6
:101D5000F4CF80915F01909160010E94921B883EB8
:101D6000934098F00E94861B9093600180935F01DE
:101D700080915D0190915E01019681709927909309
:101D80005E0180935D010C94D60B089580917201E1
:101D9000882371F18091390286958F739EE3980FA5
:101DA0009F73943018F482500C94B30D9AE3980FFB
:101DB0009F73933018F486500C94E80D97E3980FB6
:101DC0009F73963018F489500C94180E91E3980F75
:101DD0009F73963018F48F500C94450E9BE2980F29
:101DE0009F73933018F485510C94730E0C94A90EC4
:101DF000089590937901809378010895E091780196
:101E0000F0917901309721F00190F081E02D099453
:101E100080E00895E0917801F0917901309721F008
:101E20000280F381E02D09940895E0917801F0910A
:101E30007901309721F00480F581E02D099408950F
:101E400020917601309177012817390771F090932E
:101E5000770180937601E0917801F09179013097D4
:101E600021F00680F781E02D0994089520917401F6
:101E7000309175012817390771F09093750180939F
:101E80007401E0917801F0917901309721F000849C
:101E9000F185E02D0994089508950C944C0F0E944B
:101EA0007D1B0E94130A0E94461C0C944E0DBF928B
:101EB000CF92DF92EF92FF920F931F93CF93DF9316
:101EC000CDB7DEB72A970FB6F894DEBF0FBECDBFF1
:101ED0000E945C0A8BE7C82E81E0D82E10E000E05B
:101EE000B02E802F0E94080BE82EF601F1906F01B2
:101EF000F81609F45AC080910C0281FD0E940E0B65
:101F000090E080E0FE242F2D30E0482FB901082E0C
:101F100002C0759567950A94E2F760FF41C08E8311
:101F2000BF8281E090E06C0102C0CC0CDD1C4A95C0
:101F3000E2F72E2D30E02C213D21232B09F480E007
:101F400088870E94861B8160782F9A8789874E81B7
:101F50005F8168858A850E94FC0FF801E558FE4F75
:101F600080818C2580830E94C91E0E94FE0E909164
:101F70007A01891789F10E94FE0E80937A012A96D0
:101F80000FB6F894DEBF0FBECDBFDF91CF911F918A
:101F90000F91FF90EF90DF90CF90BF900C94AD0722
:101FA00001968730910509F0B0CF0F5F1F4F0830C1
:101FB000110509F095CF8FEF89838A831B820E94D8
:101FC000861B8160782F9D838C8349815A816B8128
:101FD0008D810E94FC0FC7CF2A960FB6F894DEBF02
:101FE0000FBECDBFDF91CF911F910F91FF90EF906A
:101FF000DF90CF90BF900895CF93DF93CDB7DEB73A
:102000002B970FB6F894DEBF0FBECDBF4F83588716
:1020100069877A878B871E821D8285E0FE0137964D
:10202000DE01119601900D928A95E1F749815A815E
:102030006B817C818D819E812B960FB6F894DEBFDB
:102040000FBECDBFDF91CF910C947916882309F490
:10205000D8C0823871F40E94FE0E81FDD2C089E39F
:102060000E94CE190E94961A89E30E940B1A0C94C2
:10207000961A833859F40E94FE0E80FDC2C083E593
:102080000E94CE190E94961A83E5EFCF843859F446
:102090000E94FE0E82FDB5C087E40E94CE190E9408
:1020A000961A87E4E2CF9CEF980F913A18F40E94B9
:1020B000CE19DDCF90E2980F983050F4877091E000
:1020C00001C0990F8A95EAF7892F0E944D1ACFCF48
:1020D0009BE5980F933070F4853A31F0863A39F0E9
:1020E00083E890E00C94200F81E890E0FBCF82E839
:1020F00090E0F8CF98E5980F953108F082C0883AC3
:1021000009F440C0893A09F440C08A3A09F440C051
:102110008B3A09F440C08C3A09F440C08B3B09F477
:1021200040C08C3B09F440C08D3A09F440C0803B6C
:1021300009F440C08E3A09F440C08F3A09F440C017
:10214000813B09F440C0823B09F440C0833B09F461
:1021500040C0843B09F440C0853B09F440C0863B45
:1021600009F440C0873B09F440C0883B09F440C0F3
:10217000893B09F440C08A3B09F440C090E080E00C
:102180000C94360F82EE90E0FBCF89EE90E0F8CF12
:102190008AEE90E0F5CF85EB90E0F2CF86EB90E011
:1021A000EFCF83EB90E0ECCF84EB90E0E9CF87EBCF
:1021B00090E0E6CF8CEC90E0E3CF8DEC90E0E0CFC8
:1021C00083E891E0DDCF8AE891E0DACF82E991E01F
:1021D000D7CF84E991E0D4CF81E292E0D1CF83E2FE
:1021E00092E0CECF84E292E0CBCF85E292E0C8CFFE
:1021F00086E292E0C5CF87E292E0C2CF8AE292E027
:10220000BFCF0895882309F44BC0823871F40E942F
:10221000FE0E81FF45C089E30E94CE190E94961AE6
:1022200089E30E940B1A0C94961A833859F40E9481
:10223000FE0E80FF35C083E50E94CE190E94961ADB
:1022400083E5EFCF843859F40E94FE0E82FF28C048
:1022500087E40E94CE190E94961A87E4E2CF9CEF91
:10226000980F913AF0F290E2980F983050F48770FE
:1022700091E001C0990F8A95EAF7892F0E94531ABD
:10228000D2CF9BE5980F933020F490E080E00C943F
:10229000200F885A853120F490E080E00C94360FAE
:1022A0000895882321F00E944D1A0C94961A0895DF
:1022B000882321F00E94531A0C94961A08958F9245
:1022C0009F92AF92BF92DF92EF92FF920F931F9374
:1022D000CF93DF937C01D62FC72FFC010581029598
:1022E0000F70128111110E946C1A0E94C719D82E0A
:1022F000882371F0112321F180E28D0F883000F1E5
:1023000082E00E94B1190E94C71991E0D82ED92607
:10231000EC2FE295EF70F0E0E057FE4E0C94BB27F7
:10232000A211A211F211F21134125012CF11CF11D9
:102330005B12CF11F312F3126613CF11CF116F138B
:10234000D12CE6CF0C2F0F70C07F11F00295007FCB
:102350001123A9F0002359F080E28D0F883010F08E
:10236000D11109C0802F0E944D1A0E94961A8D2FFC
:102370000E94261014C0802F0E945E1AF6CF8D2F67
:102380000E940211002359F080E28D0F883010F076
:10239000D11124C0802F0E94531A0E94961ADD206A
:1023A00009F4A4C10E94A41980FDA0C1F701128202
:1023B0000E949E190E941818C7010E9482130E9451
:1023C0009E19DF91CF911F910F91FF90EF90DF90B9
:1023D000BF90AF909F908F900C943918802F0E94DF
:1023E000641ADBCFFC2FFF70BF2EC07FC03219F004
:1023F000B29480EFB822DD2369F0D13029F11123A6
:1024000069F1002359F0F701858180FFB0CF8F700B
:10241000858304C0112361F0011104C08B2D0E943B
:102420005111BDCF8B2D0130D1F70E94801AB7CF4B
:10243000011106C00E94831A8B2D0E945811AFCF44
:10244000013009F4ACCFF6CF112321F0063008F0AB
:10245000A6CFE4CF053008F0A2CFEECF002361F382
:102460008D2F0E9402119BCF8C2F869586958370AD
:1024700069F0813009F093CF8D2F9C2F937011114B
:1024800002C090E080E00E94360F89CF8D2F9C2FF4
:102490009370111102C090E080E00E94200F7FCF66
:1024A0008D2F112329F00E94D21D0E94BE1E77CFCE
:1024B0000E943A1EFACF8C2F837009F047C0111189
:1024C0006ECF2D2F229526952770220F220F6D2F6C
:1024D0006F70862E912CB12CA12C022E04C0880C7A
:1024E000991CAA1CBB1C0A94D2F760E070E0CB01D7
:1024F000D4FF0FC06FE070E080E090E004C0660F92
:10250000771F881F991F2A95D2F76095709580953F
:102510009095C695C695C370C23051F080F4682975
:1025200079298A299B29C13071F00E94C11737CFC0
:10253000682979298A299B290E94DD1730CF0E94BA
:10254000C117C501B4010E94A51729CF8695112393
:1025500011F08C2F8170882309F421CF2D2F229523
:1025600026952770220F220F6D2F6F70862E912CCB
:10257000B12CA12C022E04C0880C991CAA1CBB1CD7
:102580000A94D2F760E070E0CB01D4FF0FC06FE097
:1025900070E080E090E004C0660F771F881F991FED
:1025A0002A95D2F76095709580959095C695C695B9
:1025B000C370C23051F080F4682979298A299B2997
:1025C000C13071F00E949B18EACE682979298A29C6
:1025D0009B290E94B718E3CE0E949B18C501B40145
:1025E0000E947F18DCCEE0E2ED0FE53108F062C01A
:1025F000F0E0E350FD4E0C94BB271213121312139C
:1026000012131213121312131213121312131213A2
:10261000121312131213121312131F132D13341348
:102620003B134513DF708C2F8F71112321F00E9413
:1026300018188D2FF4CE0E9439188D2FFECE11233D
:1026400041F0053008F0ABCE8C2F8F710E945E18E0
:10265000A6CE063008F0A3CEF7CF8C2F8F711123B2
:1026600039F00E9418189BCE8C2F8F711123C9F35B
:102670000E94391894CE112329F08C2F8F710E945B
:1026800003188DCE0E94F9178ACE112349F0CF711D
:102690008C2F0E94181863E08C2F0E94A8197FCEFF
:1026A00081E00E94B119023008F479CE82E00E94E4
:1026B000B11975CE112329F0011159CE8C2F8F71CC
:1026C000D0CF0111CDCE8C2F8F71D2CF4C2F4F7028
:1026D0006D2FC7010E94FB050E94221760CE4C2F70
:1026E0004F706D2FC7010E94AF0759CEDF91CF9178
:1026F0001F910F91FF90EF90DF90BF90AF909F9050
:102700008F9008950F931F93CF93DF93EC019881DF
:1027100089812B813C81232B39F08F3F19F481E093
:102720009F3F19F080E001C081E080FD17C0CE011D
:102730000E941406882391F0688179818A810E9421
:102740007A198C010E94D3180E949A17B801CE0101
:10275000DF91CF911F910F910C945F11DF91CF9179
:102760001F910F9108950E946C1A0E947D1A0E9479
:102770003F1A0E94961A0E946B1F0E94BE1E90E094
:1027800080E00E94200F90E080E00C94360F0E94C1
:102790005B1A0C94B3130E947019E92FE295EF7045
:1027A000E250EE30E0F4F0E0E852FC4E0C94BB272F
:1027B000E613E613EF13EF13F113EF13EF13EF1319
:1027C000E613E613F613EF13EF13F613803F19F039
:1027D00020F4803E20F481E00895843FE1F380E01E
:1027E0000895803EC0F3813FD1F7F5CF93FB882752
:1027F00080F90895CF93DF9300D000D01F92CDB71A
:10280000DEB70F900F900F900F900F90DF91CF9148
:102810000895CF93DF9300D000D000D0CDB7DEB7BE
:1028200026960FB6F894DEBF0FBECDBFDF91CF91D5
:1028300008951F93CF93DF93C091840116E0809198
:1028400085018C1304C0DF91CF911F910895D0E0D2
:102850001C9FF0011D9FF00D1124EA57FE4F40818F
:10286000518162817381848195810E94091421962E
:10287000C770E5CF4091B6015091B7016091B801A2
:102880007091B9018091BA019091BB010C94091427
:102890001F93CF93DF938091BB01807FD1F4809110
:1028A000B8018823B1F080918401D0918501B09165
:1028B000B601C091B7014091B9015091BA01A1E0B0
:1028C000BF3F09F0A0E0BA016095709516E0D813FB
:1028D00004C0DF91CF911F91089521E0411551056A
:1028E00021F02A2FCF3F09F020E090E020FD38C0F2
:1028F000189FF001199FF00D1124EA57FE4F218116
:102900002C132EC020812B132BC02281211128C013
:10291000238134812417350700F1241B350B283C13
:102920003105F0F42091BB012F7020612093BB0191
:1029300026E0289FF001299FF00D1124E557FE4F56
:1029400080818F708061808386EB91E00E9482138A
:10295000DF91CF911F910C941914260F371FDFCFF1
:1029600001968770B4CFAF92BF92CF92DF92EF9271
:10297000FF920F931F93CF93DF93CDB7DEB761978D
:102980000FB6F894DEBF0FBECDBF8C0185E0F80115
:10299000DE011D9601900D928A95E1F7D8014C91C8
:1029A00011965C9111971296EC903091B60160915E
:1029B000B7018091B9019091BA0121E0009731F0FF
:1029C0006F3F19F421E03F3F09F020E0B22FB170D2
:1029D000BB2E20FD80C1F801C380D480A090B80137
:1029E000AA2009F427C1C816D906D0F1D601A81B20
:1029F000B90BCD01FF24F394883C910508F0F12C2C
:102A00008091BB01982F907FFF2009F4CAC09111DB
:102A100087C0FE2C651329C0341327C0E11025C0E0
:102A20008F7080618093BB010E943A1486EB91E025
:102A30000E9482138091BB01F80185838F2D6196DE
:102A40000FB6F894DEBF0FBECDBFDF91CF911F91BF
:102A50000F91FF90EF90DF90CF90BF90AF900895CF
:102A6000809590958C0D9D1DC5CF81E0CD2831F0CE
:102A70005F3F19F481E04F3F09F080E080FD24C002
:102A800081E08E25F82FF170DF2E80FF3FC080910E
:102A900084012091850136E0821318C04D875E873E
:102AA0008D859E850E947019292F22952F702230C6
:102AB00008F1243030F59F7009F1D80115969C91EA
:102AC000907FE1F4FB2CBACF80E0DCCF90E0389F20
:102AD000F001399FF00D1124EA57FE4F6181561322
:102AE00006C06081461303C062816E110FC001965B
:102AF0008770D2CF9F7011F0882321F3805E8830D9
:102B000008F3C8010E948213BD2CDCCFEE2009F42B
:102B100095CF8091BB0181608093BB01F12C8ECF5A
:102B2000651312C0341310C0E1100EC0F801858384
:102B3000C8010E94821386E0F801A6EBB1E0019083
:102B40000D928A95E1F741C04D875E878D859E8500
:102B50000E94CB13882309F4C8C0EE2009F4C5C035
:102B60008091BB01803270F02091B6013091B701A5
:102B700038872F831986DB86CA868C87CE01079615
:102B80000E94821386E0F801A6EBB1E001900D925D
:102B90008A95E1F70E9448140E943A14FF24F394A6
:102BA0004DCF911115C07C2DD98AC88A6E2D898987
:102BB0000E94FA1386EB91E00E94821386E0E6EB16
:102BC000F1E0DF011D928A95E9F70E943A1436CFB1
:102BD000651312C0341310C0E1100EC0F8018583D4
:102BE000C8010E948213E6EBF1E086E0DF011D924E
:102BF0008A95E9F7FA2C22CF4D875E878D859E85D1
:102C00000E94CB13882309F470C0EE2009F46DC034
:102C10008091BB01803208F4B5CF2091B60130918C
:102C2000B7013A8329831B82DD82CC828E83CE0159
:102C30000196A6CFC816D90638F1F601E81BF90BA4
:102C4000CF01F12C883C910508F03DC0FE2CEE2010
:102C500009F44BC0651326C0341324C08091BB0116
:102C600080FD17C0982F907FA1F0D80115968C9306
:102C70001597903F09F45CCF982F907F905F8F70ED
:102C8000892B15968C9354CF809590958C0D9D1D16
:102C9000D8CF86E0F801A6EBB1E001900D928A95BD
:102CA000E1F7CCCE4D875E878D859E850E94CB1344
:102CB000811168CF8091BB0181608093BB01C80105
:102CC0000E948213BBCE7C2DD98AC88A6E2D898939
:102CD0000E94FA1373CFEE2041F04D875E878D85F9
:102CE0009E850E94CB1381114DCFC8010E94821393
:102CF00055CF1F93CF93DF93CDB7DEB72C970FB689
:102D0000F894DEBF0FBECDBF4F83588769877A879F
:102D10008B879C87CE0107960E94B314882309F401
:102D200042C09F8188852A853B85232B39F08F3FC0
:102D300019F481E09F3F19F080E001C081E080FD3F
:102D400008C04F81588569857A858B859C850E944E
:102D5000091416E08091840190918501891709F486
:102D600067C0819FC00111248A579E4F0E94B314EF
:102D7000882309F45DC0E09184011E9FF0011124B5
:102D8000EA57FE4F40815181628173818481958130
:102D90000E9409148091840190E001968770992720
:102DA00080938401D7CF86E0FE013796DE0111962D
:102DB00001900D928A95E1F79F8188852A853B8550
:102DC000232B39F08F3F19F481E09F3F19F080E009
:102DD00001C081E080FDBDCF2091850130E0C901B7
:102DE000019687709927409184014817190699F038
:102DF00096E0929FD001939FB00D1124AA57BE4F29
:102E0000FE01319601900D929A95E1F7809385012C
:102E10000E9419149ECF0E94C71310928501109230
:102E2000840186E0E6EBF1E0DF011D928A95E9F787
:102E30002C960FB6F894DEBF0FBECDBFDF91CF91B9
:102E40001F910895EF92FF920F931F93CF93DF93FB
:102E50008C01892B81F0F12CEE24E394E80121967A
:102E6000F8018491843770F4843008F05FC08130B9
:102E7000B1F08230A1F1DF91CF911F910F91FF90BE
:102E8000EF900895853709F44CC008F43DC09CE7E5
:102E9000980F903780F78F770E94021149C00E5F1C
:102EA0001F4FFE01849190E2980F983060F4877074
:102EB000FE2D01C0FF0F8A95EAF78F2F0E946F1A2F
:102EC0000E94961A02C00E9426108F2D815030F267
:102ED000EFE9FFE03197F1F700C00000F7CF0E5F98
:102EE0001F4FFE01849190E2980F983050F4877044
:102EF000FE2D01C0FF0F8A95EAF78F2F0E94751AE9
:102F0000DFCF0E940211E1CF0E5F1F4FFE01C4917F
:102F1000C150D8F28FE99FE00197F1F700C000009F
:102F2000F7CF0E5F1F4FFE01F490CFCF0E94261007
:102F30008E01CBCF08956093E3017093E4018093F9
:102F4000E5019093E6010C94B3130F931F93009146
:102F5000E3011091E4012091E5013091E601DC01EB
:102F6000CB01802B912BA22BB32B8093E301909369
:102F7000E401A093E501B093E6011F910F910C9439
:102F8000B3130F931F930091E3011091E40120917B
:102F9000E5013091E601DC01CB0180239123A223DE
:102FA000B3238093E3019093E401A093E501B093F0
:102FB000E6011F910F910C94B3130F931F9300918F
:102FC000E3011091E4012091E5013091E601DC017B
:102FD000CB0180279127A227B3278093E301909309
:102FE000E401A093E501B093E6011F910F910C94C9
:102FF000B3131092DF011092E0011092E1011092E0
:10300000E2010C94B31341E050E060E070E004C0D2
:10301000440F551F661F771F8A95D2F74093DF0133
:103020005093E0016093E1017093E2010C94B313BB
:1030300041E050E060E070E004C0440F551F661F9F
:10304000771F8A95D2F78091DF019091E001A091DE
:10305000E101B091E201842B952BA62BB72B809335
:10306000DF019093E001A093E101B093E2010C94A1
:10307000B31341E050E060E070E004C0440F551F1E
:10308000661F771F8A95D2F7409550956095709589
:103090008091DF019091E001A091E101B091E20106
:1030A00084239523A623B7238093DF019093E00127
:1030B000A093E101B093E2010C94B31341E050E01E
:1030C00060E070E004C0440F551F661F771F8A95AB
:1030D000D2F78091DF019091E001A091E101B091E0
:1030E000E20184279527A627B7278093DF019093D5
:1030F000E001A093E101B093E2010C94B3130F93AC
:103100001F930091DF011091E0012091E1013091C6
:10311000E201DC01CB01802B912BA22BB32B8093FE
:10312000DF019093E001A093E101B093E2011F91D0
:103130000F910C94B3130F931F930091DF01109123
:10314000E0012091E1013091E201DC01CB0180231B
:103150009123A223B3238093DF019093E001A093F6
:10316000E101B093E2011F910F910C94B3130F93FF
:103170001F930091DF011091E0012091E101309156
:10318000E201DC01CB0180279127A227B32780939E
:10319000DF019093E001A093E101B093E2011F9160
:1031A0000F910C94B313089527E0929F800D112482
:1031B000982F977071E001C0770F9A95EAF786957E
:1031C0008695869525E0829FC001112450E040E05D
:1031D000A62FB0E0FC01E40FF51FE454FE4F608120
:1031E0009D01042E02C0369527950A94E2F72170BE
:1031F000219526272723262720834F5F5F4F4530C1
:10320000510541F7089527E0929F800D1124982FD2
:10321000977086958695869525E0829FA00111245A
:1032200070E060E080E0FA01E60FF71FE454FE4F23
:10323000208130E0092E02C0369527950A94E2F7E6
:1032400021703327062E01C0220F0A94EAF7822B41
:103250006F5F7F4F6530710531F70895BF92CF9250
:10326000DF92EF92FF920F931F93CF93DF938C0126
:10327000C090DF01D090E001E090E101F090E20128
:103280008091E3019091E401A091E501B091E60104
:10329000C82AD92AEA2AFB2ACFE1D0E0BC2ED701DE
:1032A000C6010C2E04C0B695A795979587950A94EC
:1032B000D2F780FD0EC0219788F7B12C8B2DDF91BE
:1032C000CF911F910F91FF90EF90DF90CF90BF9023
:1032D0000895B8018C2F0E94CC07019761F3EECFBF
:1032E000CF93DF93EC010E942E19BE01DF91CF91A5
:1032F0000C94CC071F93CF93DF93EB019091830144
:10330000992331F0CB01DF91CF911F910C9470196B
:10331000882379F0CB010E942E19182F682FCE0137
:103320000E94D418BE01812FDF91CF911F910C9480
:10333000CC07CB010E940319182FF4CF8091E7012D
:1033400085958595859508958091E7018770089505
:1033500098E0899F90011124622B6093E7010C94FF
:1033600018189091E701809589238093E701282F11
:10337000277061F4282F082E000C330B92171306C8
:1033800029F08595859585950C9439180895909127
:10339000E701977081E009F480E0089590911301AE
:1033A0009923E1F09091450297FF18C0E82FE69528
:1033B000E695E695EF3139F1209101013091020156
:1033C000E20FF32FF11D877021E030E001C0220FE2
:1033D0008A95EAF78181822B8183089520910101EA
:1033E00030910201F90132969FEF40E0519185172B
:1033F00051F09F3F19F4511101C0942F4F5F4E318E
:10340000A9F79F3F09F40895290F311D97FD3A95BB
:10341000F90182830895909113019923F1F090911D
:10342000450297FF1AC0E82FE695E695E695EF313D
:1034300029F12091010130910201E20FF32FF11DDA
:10344000282F277081E090E001C0880F2A95EAF7C5
:103450008095918189238183089520910101309184
:103460000201F9013296205E3F4F9191891303C00A
:10347000DF0111971C92E217F307B9F7089581E075
:1034800090E0E0910101F0910201E80FF91F108234
:10349000019680329105A9F7089590910B02892B2E
:1034A00080930B020895982F909580910B028923A9
:1034B00080930B02089510920B02089590910A02D6
:1034C000892B80930A020895982F909580910A0283
:1034D000892380930A02089510920A020895909118
:1034E0000902892B809309020895982F9095809165
:1034F0000902892380930902089510920902089510
:103500008093E80108951092E80108952091010147
:1035100030910201F9013196205E3F4F80E0919198
:1035200091118F5FE217F307D1F70895E091010140
:10353000F091020180910B028083E0910101F091F2
:103540000201808190910A02892B8083E091010120
:10355000F0910201808190910902892B80839091E2
:10356000E801992361F0E0910101F091020180816D
:10357000892B80830E94861A81111092E801809124
:103580000101909102010C940A0F6DEE7EEF90E024
:1035900080E00E94F82760E082E090E00E94DA2755
:1035A00060E083E090E00E94DA2760E084E090E051
:1035B0000E94DA2760E085E090E00E94DA2740E090
:1035C00050E0BA0188E090E00C94EC2790E080E0B5
:1035D0000E94D42721E08D3E9E4F09F020E0822FEB
:1035E000089582E090E00C94C627682F82E090E076
:1035F0000C94DA2783E090E00C94C627682F83E0D0
:1036000090E00C94DA2784E090E00C94C627682FB1
:1036100084E090E00C94DA2780914B02843039F1F9
:1036200010920D0288E190E020E40FB6F894A8957E
:10363000809360000FBE2093600080E00E94AD0781
:1036400083B7817F846083BF83B7816083BF7894B1
:10365000889583B78E7F83BF0FB6F894A895809125
:103660006000886180936000109260000FBE089532
:1036700008950895CF930E94381B0E945C0A0E940F
:10368000391BC0E08C2F0E94080B811105C0CF5F51
:10369000C830C1F7CF91089581E0FCCF0E94C713D5
:1036A0000E94FE0E0C94AD071F920F920FB60F9260
:1036B00011248F939F93AF93BF9380910D0281113B
:1036C00013C08091410290914202A0914302B091B7
:1036D00044024196A11DB11D809341029093420284
:1036E000A0934302B0934402BF91AF919F918F91F9
:1036F0000F900FBE0F901F90189582E084BD93E04D
:1037000095BD9AEF97BD80936E0008952FB7F894FA
:103710008091410290914202A0914302B0914402F3
:103720002FBF0895CF92DF92EF92FF920F931F93D6
:103730002FB7F894409141025091420260914302A8
:10374000709144022FBF6A017B01EE24FF248C019B
:1037500030E020E0C016D106E206F30650F0481B28
:10376000590BCA011F910F91FF90EF90DF90CF90FE
:10377000089541505109F3CF1F920F920FB60F9247
:1037800011248F939F93AF93BF93809141029091A7
:103790004202A0914302B09144020196A11DB11DC5
:1037A0008093410290934202A0934302B09344025B
:1037B000BF91AF919F918F910F900FBE0F901F906F
:1037C00018950E946723F8942FEF87EA91E621501D
:1037D00080409040E1F700C0000087E090EBDC0102
:1037E0008093540290935502A0935602B0935702CF
:1037F00088E19CE00FB6F894A895809360000FBE16
:1038000090936000FFCFCF92DF92EF92FF920F93E1
:103810001F93CF93C0E0E82EF12C8C2F0E94080B51
:1038200010E000E0C82ED12CC601002E02C09595F4
:1038300087950A94E2F780FD11C00F5F1F4F073094
:10384000110591F7CF5FC83041F780E0CF911F910C
:103850000F91FF90EF90DF90CF900895602F7C2F15
:1038600080E00E94B007E816F90639F781E0EECF54
:10387000CF93C82F8CE20E94031C882321F08C2F49
:10388000CF910C94031C80E0CF910895CF930E94B8
:10389000E61A811102C00E94C51AC5E608C00E943E
:1038A0005C0A8FE39CE90197F1F700C00000C1506A
:1038B000B1F789E20E94381C8111EFC08AE20E94B0
:1038C000381C81110E94C51A85E00E94381C8111A4
:1038D0000E94E11B0E94F11A80930C0287E00E9473
:1038E000381C882371F08BE10E94381C882309F46E
:1038F000B1C090910C02892F8D7F91FF82608093DF
:103900000C0280910C020E94F51A0E94031B90E0A9
:10391000909346028093450280EE0E94381C8823D3
:1039200041F090914502892F8E7F90FF81608093B6
:10393000450289E30E94381C882341F0909145029A
:10394000892F8D7F91FF82608093450282EE0E94D5
:10395000381C882341F090914502892F8B7F92FF7C
:1039600084608093450286EE0E94381C882341F0D3
:1039700090914502892F877F93FF8860809345024D
:1039800083EE0E94381C882341F090914502892FD4
:103990008F7E94FF80618093450285E30E94381CEE
:1039A000882341F090914502892F8F7D95FF806299
:1039B0008093450281E30E94381C882341F0909156
:1039C0004502892F8F7B96FF80648093450281E1B9
:1039D0000E94381C882341F090914502892F97FB63
:1039E00087F9805880934502809145020E94071B09
:1039F00087E20E94381CC82F8EE10E94381C81117A
:103A0000C2608FE10E94381C8111C46080E20E9474
:103A1000381C8111C86081E20E94381C8111C0618C
:103A200082E20E94381C8111C06283E20E94381C2D
:103A30008111C06484E20E94381C882341F1C0686F
:103A40008C2F0E94FE1A6C2F70E090E080E0CF91E6
:103A50000C949B178EE00E94381C882339F09091BB
:103A60000C02892F8B7F92FF846049CF80E10E94F6
:103A7000381C90910C02882329F0892F877F93FFAF
:103A800088603DCF892F8E7F90FF816038CFC11134
:103A9000D7CF0E94FA1A682FD7CFCF91089580917F
:103AA000100280FF12C06091060185E0689FB0019E
:103AB0001124759567957595679560387105A8F51A
:103AC00061157105A1F1862F089581FF09C06091EC
:103AD000060185E0689FB001112475956795EDCFCB
:103AE00082FF07C06091060185E0689FB001112444
:103AF000E4CF209111022223A9F090910501609159
:103B0000060185E0689FB00111242917B0F6269FB1
:103B1000A001279F500D1124692F70E0CA010E9457
:103B2000A727CBCF65E070E0CECF8FE7089581E087
:103B300008958091100280FF0CC06091040170E034
:103B400075956795759567956115710549F1862F8E
:103B5000089581FF06C06091040170E07595679536
:103B6000F3CF6091040182FD0BC090911102992363
:103B7000A1F06091030180910401961738F0682F3D
:103B800070E06038710500F38FE70895899FC001E8
:103B9000112470E00E94A727F4CF61E070E0D7CF36
:103BA00081E00895803F31F40E944F1D81958093FC
:103BB00014020895813F19F40E944F1DF8CF823FEF
:103BC00031F40E944F1D8195809313020895833F25
:103BD00019F40E944F1DF8CF893F29F40E94991DC6
:103BE0008093150208958A3F21F40E94991D8195C2
:103BF000F7CF8B3F31F40E94991D81958093160277
:103C000008958C3F19F40E94991DF8CF843F31F438
:103C1000809112028160809312020895853F21F401
:103C2000809112028260F7CF863F21F480911202C8
:103C30008460F1CF873F21F4809112028860EBCF3E
:103C4000883F21F4809112028061E5CF8D3F31F4ED
:103C50008091100281608093100208958E3F21F4BC
:103C6000809110028260F7CF8F3FB9F780911002E8
:103C70008460F1CF803FC1F48091140287FD1092DF
:103C800014028091130281110EC0809114028111DF
:103C90000AC080911502811106C08091160281111F
:103CA00002C0109211020895813F29F480911402FC
:103CB00018162CF3E6CF90911302823F29F497FF58
:103CC000E0CF10921302DDCF833F19F41916CCF325
:103CD000D8CF893F39F480911502181694F61092C6
:103CE0001502CFCF8A3F29F48091150287FFC9CFF3
:103CF000F6CF8B3F39F48091160287FFC2CF109226
:103D00001602BFCF8C3F29F4809116021816BCF31F
:103D1000B8CF843F31F4809112028E7F80931202DB
:103D2000B0CF853F21F4809112028D7FF7CF863F7F
:103D300021F4809112028B7FF1CF873F21F4809193
:103D40001202877FEBCF883F21F4809112028F7E91
:103D5000E5CF8D3F31F4809110028E7F8093100269
:103D600090CF8E3F21F4809110028D7FF7CF8F3F4F
:103D700009F087CF809110028B7FF0CF82E192E033
:103D80000E94150F0E94861B90930F0280930E02D3
:103D900008951F93CF93DF9380910E0290910F02AD
:103DA0000E94921BAC01909111022091070130E01A
:103DB000911106C0209108018AE0289F90011124EA
:103DC0004217530780F080911302C09114021091A2
:103DD0001502D091160281110AC0C11178C01111CB
:103DE00076C0D11174C0DF91CF911F9108959F3F8C
:103DF00019F09F5F90931102181624F40E944F1D32
:103E0000809313028091130287FF05C00E944F1D0B
:103E10008195809313021C1624F40E944F1D8093F9
:103E200014028091140287FF05C00E944F1D8195E6
:103E30008093140260911302662331F1C091140241
:103E4000CC2311F1062E000C770B880B990B0E94E6
:103E50009A2623E333E343E35FE30E94FE260E94B6
:103E60006226609313026C2FCC0F770B880B990B93
:103E70000E949A2623E333E343E35FE30E94FE2696
:103E80000E94622660931402111624F40E94991D68
:103E9000809315028091150287FF05C00E94991D2D
:103EA0008195809315021D1624F40E94991D80931C
:103EB00016028091160287FF05C00E94991D819508
:103EC00080931602DF91CF911F910C94BE1E9F3FED
:103ED00009F08FCFA0CF85E0E2E1F2E0DF011D9293
:103EE0008A95E9F7109211021092100208958091BC
:103EF00037020895CF93DF9300D01F92CDB7DEB77E
:103F00009C0180914B02843019F593E099833B83A7
:103F10002A839093E9008FEF9091E800815095FDFE
:103F200006C095ED9A95F1F700008111F5CF8091CB
:103F3000E80085FF0DC050E040E063E070E0CE0196
:103F400001960E94D7218091E8008E778093E80047
:103F50000F900F900F90DF91CF910895CF93DF9343
:103F600000D01F92CDB7DEB720914B02243031F53F
:103F700022E02983805891099B838A8383E0809380
:103F8000E9008FEF9091E800815095FD06C095ED16
:103F90009A95F1F700008111F5CF8091E80085FF37
:103FA0000DC050E040E063E070E0CE0101960E9459
:103FB000D7218091E8008E778093E8000F900F90D2
:103FC0000F90DF91CF9108959C0180914B02843036
:103FD000F9F482E08093E9009FEF8091E80091502E
:103FE00085FD06C085ED8A95F1F700009111F5CFAA
:103FF0008091E80085FF0CC050E040E065E070E093
:10400000C9010E94D7218091E8008E778093E80053
:104010000895CF93DF93EC0180914B028430F1F44B
:10402000909113019923E9F09091450297FF19C0EF
:104030008093E9008FEF9091E800815095FD06C0D4
:1040400095E19A95F1F700008111F5CF8091E80094
:1040500050E040E060E270E085FD1AC0DF91CF9152
:10406000089581E08093E9008FEF9091E8008150FE
:1040700095FD06C095ED9A95F1F700008111F5CFF9
:104080008091E80085FFEACF50E040E068E070E012
:10409000CE010E94D7218091E8008E778093E800BE
:1040A00080E2FE01A7E1B2E001900D928A95E1F76E
:1040B000D5CF80914A02811109C00E9467230E94D6
:1040C000C4238091E20084608093E20008951092FE
:1040D0004A020895089508950C944E1B42E061EC45
:1040E00081E00E94E52242E061EC82E00E94E5224C
:1040F00042E061EC83E00E94E52242E261EC84E070
:104100000C94E52280914D02833009F455C030F4BF
:10411000813071F1823009F491C008958A3009F438
:104120007DC08B3009F463C0893009F044C08091B0
:104130004C02813209F03FC08091500290915102AF
:10414000009711F00397B9F58091E800877F80937D
:10415000E8008091E80082FF2AC08091F1008093FE
:1041600037028091E8008B778093E8000C94192344
:1041700080914C02813AF9F48091E800877F809326
:10418000E8008091500290915102892B61F460E225
:1041900087E192E070E00E9426228091E8008B7710
:1041A0008093E800089560E090E080E0F3CF809194
:1041B0004B028111CECF089580914C02813AD9F7FC
:1041C0008091500290915102892BA9F78091E800CB
:1041D000877F8093E8008091E80080FFFCCF80918A
:1041E00013018093F1008091E8008E77BDCF80911C
:1041F0004C02813201F78091500290915102892B3B
:10420000D1F68091E800877F8093E8000E9419230F
:1042100080914E02809313010C94C71380914C023D
:10422000813249F68091E800877F8093E8000E9400
:10423000192380914F0280933802089580914C0297
:10424000813A09F0B8CF8091E800877F8093E80039
:104250008091E80080FFFCCF80913802C2CF84B704
:10426000877F84BF0FB6F894A8958091600088611D
:1042700080936000109260000FBE80E88093610020
:10428000109261000E944D0F0E9467230E94C42378
:104290008091E20084608093E20078940E94462638
:1042A0000E944F0F89E091E00E94F90E80914B022D
:1042B000853029F00E94570F0E94C60EF7CF0E944A
:1042C0000C1B80914902882389F30E943A1B8823A2
:1042D00069F30E94C121EACF292F3327233031050A
:1042E00079F158F421303105F1F02230310519F11E
:1042F00090E080E030E020E01AC02132310599F1F1
:1043000022323105A9F7643098F770E0FB01EE0F17
:10431000FF1FE95DFE4F208131816D5D7E4FFB0106
:10432000808190E004C082E190E026E53AE0FA0165
:104330003183208308958DE690E029EE39E0F7CFB0
:1043400099278130910561F028F0029789F6E9EB11
:10435000F9E002C0E5EEF9E0849190E09F01E7CF3B
:10436000EDECF9E0F9CF643008F0C2CFE62FF0E0D1
:10437000EE0FFF1FE15DFE4F2081318189E090E06B
:10438000D6CF80E189BD82E189BD09B400FEFDCFB1
:104390008091D8008F7D8093D8008091E00082606A
:1043A0008093E0008091E00081FDFCCF0895AF9202
:1043B000BF92CF92DF92FF920F931F93CF93DF9321
:1043C0006C01EB018A010E943823F82E811123C071
:1043D0000115110539F0F80180819181C81BD90BB5
:1043E000C80ED91EB12CA12C2097A9F08091E8000D
:1043F00085FD22C08091E8008E778093E80001154A
:104400001105A1F0F80180819181A80EB91EB18239
:10441000A08285E0F82E8F2DDF91CF911F910F9113
:10442000FF90DF90CF90BF90AF9008950E94382307
:104430008823D1F2F82EEFCFF60181916F0180939E
:10444000F1002197FFEFAF1ABF0ACECFFC01809198
:1044500052029091530286179707A0F061157105DB
:1044600029F49091E8009E779093E80090E0611520
:10447000710551F4911108C08091E80082FF35C0A8
:1044800080E00895BC01F2CF80914B028823C9F1EE
:104490008530C9F18091E80083FD31C08091E8004A
:1044A00082FDEACF8091E80080FFE1CF2091F30008
:1044B0008091F200322F282F6115710519F02830F4
:1044C000310558F091E02830310509F090E0209155
:1044D000E8002E772093E800CACF81918093F10005
:1044E000615071092F5F3F4FE7CF80914B028823C6
:1044F00041F0853041F08091E80083FFBDCF81E03D
:10450000089582E0089583E00895FC0180915202AD
:104510009091530286179707A0F06115710529F451
:104520008091E8008E778093E80090E06115710536
:1045300051F4911108C08091E80082FF36C080E0FC
:104540000895BC01F2CF80914B028823D1F18530D0
:10455000D1F18091E80083FD32C08091E80082FDB6
:10456000EACF8091E80080FFE1CF2091F3008091B5
:10457000F200322F282F6115710519F0283031050E
:1045800058F091E02830310509F090E08091E80082
:104590008E778093E800CACF84918093F1003196A2
:1045A000615071092F5F3F4FE6CF80914B02882306
:1045B00041F0853041F08091E80083FFBCCF81E07D
:1045C000089582E0089583E00895982F973028F0A9
:1045D0008F708093E90081E008959093E900242F83
:1045E000762F50E0981731F07091EC002091ED009B
:1045F0005091F00021FD02C09F5FE8CF3091EB00A9
:104600003E7F3093EB003091ED003D7F3093ED0025
:104610003091EB0031603093EB007093EC0020930D
:10462000ED005093F0002091EE0027FDE5CF80E0F3
:10463000089580914C0287FF13C08091E80082FFAB
:1046400006C08091E8008B778093E80004C08091D9
:104650004B028111F2CF089580914B028823D9F348
:104660008091E80080FFF8CF8091E8008E77ECCF52
:104670002091E4003091E50085E69091EC0090FFF8
:1046800006C09091E80090FF06C080E008959091E8
:10469000E80092FDFACF90914B02992391F095306A
:1046A00091F09091EB0095FD10C04091E400509185
:1046B000E5002417350709F381509A01F1F684E0EB
:1046C000089582E0089583E0089581E008950E94AE
:1046D000D5230E94DD23E0EEF0E0808181608083BD
:1046E000E8EDF0E080818F77808319BCA7EDB0E022
:1046F0008C918E7F8C9380818F7E808310924A0272
:1047000008950F931F93CF93DF930E94D5230E94A8
:10471000DD23C8EDD0E088818F7788838881806829
:10472000888388818F7D888319BC10924B021092F8
:104730004702109249021092480200EE10E0F80180
:1047400080818B7F808388818160888342E060E004
:1047500080E00E94E522E1EEF0E080818E7F8083A0
:10476000E2EEF0E0808181608083808188608083D8
:10477000F80180818E7F8083888180618883DF91CA
:10478000CF911F910F910895E8EDF0E080818F7E29
:104790008083E7EDF0E080818160808384E082BFE8
:1047A00081E080934A020C948123E8EDF0E080815F
:1047B0008E7F80831092E20008951092DA001092AA
:1047C000E10008951F920F920FB60F9211242F93BC
:1047D0003F934F935F936F937F938F939F93AF9389
:1047E000BF93EF93FF938091E10082FF0BC0809114
:1047F000E20082FF07C08091E1008B7F8093E1009F
:104800000E9445268091DA0080FF19C08091D8006F
:1048100080FF15C08091DA008E7F8093DA0080914E
:10482000D90080FF94C080E189BD82E189BD09B4CF
:1048300000FEFDCF81E080934B020E9459208091C1
:10484000E10080FF19C08091E20080FF15C08091D7
:10485000E2008E7F8093E2008091E200806180938D
:10486000E2008091D80080628093D80019BC85E076
:1048700080934B020E946B208091E10084FF29C04D
:104880008091E20084FF25C080E189BD82E189BD7D
:1048900009B400FEFDCF8091D8008F7D8093D800B1
:1048A0008091E1008F7E8093E1008091E2008F7E15
:1048B0008093E2008091E20081608093E200809129
:1048C0004702882309F449C084E080934B020E9488
:1048D0006C208091E10083FF29C08091E20083FF7A
:1048E00025C08091E100877F8093E10082E0809382
:1048F0004B02109247028091E1008E7F8093E1008D
:104900008091E2008E7F8093E2008091E2008061DE
:104910008093E20042E060E080E00E94E522809126
:10492000F00088608093F0000E946A20FF91EF9170
:10493000BF91AF919F918F917F916F915F914F91B7
:104940003F912F910F900FBE0F901F90189519BC9B
:1049500010924B020E94672072CF8091E30087FD86
:1049600002C081E0B2CF83E0B0CF1F920F920FB6AA
:104970000F9211242F933F934F935F936F937F93E5
:104980008F939F93AF93BF93CF93EF93FF93C09178
:10499000E900CF708091EC001092E9008091F00066
:1049A000877F8093F00078940E94F1241092E900B0
:1049B0008091F00088608093F000C093E900FF913F
:1049C000EF91CF91BF91AF919F918F917F916F9117
:1049D0005F914F913F912F910F900FBE0F901F90BD
:1049E00018951F93CF93DF93CDB7DEB7AA970FB675
:1049F000F894DEBF0FBECDBFECE4F2E08091F10091
:104A0000819322E0E435F207C9F70E948220809169
:104A1000E80083FF42C080914C0290914D029A3091
:104A200008F03BC0E92FF0E0E85EFA4D0C94BB279C
:104A3000222546254D2546254D25A125C3254D2555
:104A400018262526803879F0823839F58091500271
:104A50008F708093E9008091EB0085FB882780F9B7
:104A60001092E90006C0809148029091490291118C
:104A700082609091E800977F9093E8008093F10026
:104A80001092F1008091E8008E772DC0282F2D7FA5
:104A900021F48823D1F0823059F18091E80083FF1E
:104AA0000AC08091E800877F8093E8008091EB0046
:104AB00080628093EB00AA960FB6F894DEBF0FBE1B
:104AC000CDBFDF91CF911F91089580914E0281302B
:104AD00021F7933009F080E0809349021092E900B9
:104AE0008091E800877F8093E8000E941923D5CF4A
:104AF00080914E028111F2CF809150028F7069F245
:104B00008093E9002091EB0020FFE8CF933031F44F
:104B10008091EB0080628093EB00E0CF9091EB00FE
:104B200090619093EB0021E030E001C0220F8A9564
:104B3000EAF72093EA001092EA008091EB00886087
:104B4000EACF8111AACF10914E021F778091E30026
:104B50008078812B8093E3008091E800877F8093A9
:104B6000E8000E9419238091E80080FFFCCF80912B
:104B7000E30080688093E30083E0111101C082E0CC
:104B800080934B028ACF8058823008F086CF809184
:104B90004E0290914F028C3D23E09207A1F583E0F5
:104BA0008A838AE289834FB7F894DE01139620E066
:104BB0003EE051E2E32FF0E050935700E49120FFF4
:104BC00003C0E295EF703F5FEF708E2F90E0EA3008
:104BD000C0F0C7968D939D932F5F243159F74FBF37
:104BE0008091E800877F8093E8006AE270E0CE0160
:104BF00001960E9426228091E8008B778093E8003E
:104C00004CCFC096E7CFAE014F5F5F4F609150022F
:104C10000E946C21BC01892B09F43FCF9091E800E0
:104C2000977F9093E80089819A810E948522E3CF43
:104C3000803809F032CF8091E800877F8093E800C8
:104C4000809147028093F1001DCF811126CF909172
:104C50004E02923008F021CF8091E800877F809348
:104C6000E800909347020E9419238091470288230D
:104C700031F084E080934B020E946E200ECF809131
:104C8000E30087FDF6CF81E0F5CF0895CF938091C3
:104C90004B02882399F0C091E900CF708091EC001D
:104CA00080FD0EC080E0C82B1092E9008091E800E2
:104CB00083FD0E94F124CF70C093E900CF91089545
:104CC00080E8F1CF0E9469266894B1110C94F8260F
:104CD00008950E94DD2688F09F5798F0B92F9927F4
:104CE000B751B0F0E1F0660F771F881F991F1AF0D7
:104CF000BA95C9F714C0B13091F00E94F726B1E01F
:104D000008950C94F726672F782F8827B85F39F01D
:104D1000B93FCCF3869577956795B395D9F73EF46F
:104D200090958095709561957F4F8F4F9F4F089517
:104D3000E89409C097FB3EF4909580957095619535
:104D40007F4F8F4F9F4F9923A9F0F92F96E9BB27EB
:104D50009395F695879577956795B795F111F8CF67
:104D6000FAF4BB0F11F460FF1BC06F5F7F4F8F4FD2
:104D70009F4F16C0882311F096E911C0772321F0C8
:104D80009EE8872F762F05C0662371F096E8862F60
:104D900070E060E02AF09A95660F771F881FDAF7B7
:104DA000880F9695879597F9089557FD9058440F69
:104DB000551F59F05F3F71F04795880F97FB991F7A
:104DC00061F09F3F79F08795089512161306140637
:104DD000551FF2CF4695F1DF08C0161617061806C4
:104DE000991FF1CF86957105610508940895E8949F
:104DF000BB2766277727CB0197F908950E941127D3
:104E00000C9482270E94742738F00E947B2720F0A0
:104E1000952311F00C946B270C94712711240C949A
:104E2000F8260E94D52670F3959FC1F3950F50E0A8
:104E3000551F629FF001729FBB27F00DB11D639F4C
:104E4000AA27F00DB11DAA1F649F6627B00DA11DF2
:104E5000661F829F2227B00DA11D621F739FB00D98
:104E6000A11D621F839FA00D611D221F749F332708
:104E7000A00D611D231F849F600D211D822F762FA1
:104E80006A2F11249F5750409AF0F1F088234AF07E
:104E9000EE0FFF1FBB1F661F771F881F91505040EA
:104EA000A9F79E3F510580F00C946B270C94F826CF
:104EB0005F3FE4F3983ED4F3869577956795B79571
:104EC000F795E7959F5FC1F7FE2B880F911D96958B
:104ED000879597F9089597F99F6780E870E060E0FB
:104EE00008959FEF80EC089500240A941616170683
:104EF00018060906089500240A94121613061406CB
:104F000005060895092E0394000C11F4882352F02D
:104F1000BB0F40F4BF2B11F460FF04C06F5F7F4FE5
:104F20008F4F9F4F0895AA1BBB1B51E107C0AA1FBB
:104F3000BB1FA617B70710F0A61BB70B881F991F3A
:104F40005A95A9F780959095BC01CD01089597FBDE
:104F5000072E16F4009407D077FD09D00E949327FE
:104F600007FC05D03EF4909581959F4F089570956C
:104F700061957F4F0895EE0FFF1F0590F491E02D8E
:104F8000099481E090E0F8940C940E28F999FECFF2
:104F900092BD81BDF89A992780B50895A6E1B0E049
:104FA00044E050E00C940028A8E1B0E042E050E07A
:104FB0000C940028262FF999FECF92BD81BDF89A56
:104FC000019700B4021639F01FBA20BD0FB6F8944D
:104FD000FA9AF99A0FBE08950396272F0E94DB27AD
:104FE0000E94DA27252F0E94DB27242F0C94DB2731
:104FF0000196272F0E94DB270C94DA27DC01CB01D6
:10500000FC01F999FECF06C0F2BDE1BDF89A3196D8
:1050100000B40D9241505040B8F70895F894FFCF76
:10502000FFE9012808140A321E771F0920E41FAE89
:105030001F7A1F0190946697C63435F4F5F6F73160
:10504000333236404D3639240BD70AA10A680AFBA1
:0850500009140A2D0A460A00AA
:00000001FF
